:020000040000FA
:0400000078EF00F0A5
:100008005F82FACF70F0FBCF71F0E1CF72F0E2CFF0
:1000180073F0D9CF74F0DACF75F0F3CF76F0F4CF70
:1000280077F0F6CF78F0F7CF79F0F8CF7AF0F5CF10
:100038007BF0F2AC22EF00F024EF00F05EEF00F06E
:10004800A3A829EF00F02BEF00F041EF00F0A4A8DF
:1000580030EF00F032EF00F041EF00F002D83FEF50
:1000680000F00500FA6E0001D451FD6ED551FE6E08
:10007800FF6AFA5012005EEF00F0A3AA46EF00F004
:1000880048EF00F05EEF00F0A4AA4DEF00F04FEF4C
:1000980000F05EEF00F002D85CEF00F00500FA6EA9
:1000A8000001D251FD6ED351FE6EFF6AFA50120064
:1000B8005EEF00F07BC0F5FF7AC0F8FF79C0F7FF6C
:1000C80078C0F6FF77C0F4FF76C0F3FF75C0DAFF9B
:1000D80074C0D9FF73C0E2FF72C0E1FF71C0FBFFBB
:1000E80070C0FAFF5F92110096EF18F0B7EC1AF0A3
:1000F800260E00017C6F290E7D6F48EC1BF0F28CF8
:10010800F28E010E0101B36F21EEB6F011EEA8F0E8
:10011800090EDBCFE3FFE806FCE2000E00017D6F6D
:10012800000E7C6FF8EC19F000EC1BF00009D8B455
:10013800A0EF00F0A2EF00F0A4EF00F007EC18F039
:1001480000EC1BF00009D8B4ACEF00F0AEEF00F003
:10015800B0EF00F007EC18F0000E00017D6F000E04
:100168007C6F11EC1AF09E9017EC1BF00009D8B4C4
:10017800C0EF00F0C2EF00F0B8EF00F0FC0E010194
:10018800866FFE0E876F68EC1AF09D0E0101866F70
:10019800FD0E876F68EC1AF0990E0101866FFC0E50
:1001A800876F68EC1AF0F60E0101866FFF0E876FF5
:1001B80068EC1AF021EC1BF00009D8B4E6EF00F067
:1001C800E8EF00F0DEEF00F053EC1AF00101B26F37
:1001D800B6EF03F0100E866FFD0E876F68EC1AF00D
:1001E80026EF01F0D50E866FFF0E876F68EC1AF0C8
:1001F80048EF01F0A60E866FFF0E876F68EC1AF0C5
:1002080048EF01F0B20E866FFF0E876F68EC1AF0A8
:1002180048EF01F0BE0E866FFF0E876F68EC1AF08C
:1002280048EF01F0800E866FFF0E876F68EC1AF0BA
:1002380048EF01F0A60E866FFF0E876F68EC1AF084
:1002480048EF01F00101B351906F916B9151000A91
:10025800D8B431EF01F01EEF01F09051000AD8B484
:10026800F6EF00F0010AD8B4FEEF00F0030AD8B4A4
:1002780006EF01F0010AD8B40EEF01F0070AD8B46E
:1002880016EF01F01EEF01F0100E0101866FFD0E52
:10029800876F68EC1AF0470E0101866FFF0E876FB3
:1002A80068EC1AF0EF0E0101866FFF0E876F68EC9D
:1002B8001AF0A30E0101866FFE0E876F68EC1AF024
:1002C800760E0101866FFE0E876F68EC1AF0440EF9
:1002D8000101866FFD0E876F68EC1AF0B80E0101F8
:1002E800866FFE0E876F68EC1AF0380E0101866F74
:1002F800FE0E876F68EC1AF0180E0101866FFE0E6D
:10030800876F68EC1AF0DA0E0101866FFC0E876FB2
:1003180068EC1AF0B80E0101866FFE0E876F68EC64
:100328001AF0100E0101866FFD0E876F68EC1AF047
:10033800DEEF00F0E00E866FFF0E876F68EC1AF0B4
:10034800DEEF00F0000EB56F420E866FFD0E876F70
:1003580068EC1AF00101B52B270EB565B6EF01F070
:10036800B8EF01F0A8EF01F0FF00DEEF00F0000E9B
:10037800B56F420E866FFD0E876F68EC1AF00101AB
:10038800B52B270EB565CBEF01F0CDEF01F0BDEF32
:1003980001F0DEEF00F0720E866FFD0E876F68ECDD
:1003A8001AF0640E0101866FFF0E876F68EC1AF071
:1003B8000B0E0101866FFF0E876F68EC1AF01A0E9C
:1003C8000101866FFF0E876F68EC1AF0290E010194
:1003D800866FFF0E876F68EC1AF0DC0E0101866FDE
:1003E800FE0E876F68EC1AF021EC1BF00009D8A408
:1003F80000EF02F002EF02F0F8EF01F053EC1AF010
:10040800D00F0101B36F27EF02F0D00E766E540EB5
:10041800756E48EF02F0340E766E140E756E48EF66
:1004280002F01A0E766E090E756E48EF02F0060E8F
:10043800766E810E756E48EF02F0030E766E400EF2
:10044800756E48EF02F0B351906F916B9151000AAD
:10045800D8B431EF02F00FEF02F09051000AD8B48F
:1004680009EF02F0010AD8B40FEF02F0030AD8B47A
:1004780015EF02F0010AD8B41BEF02F0070AD8B44E
:1004880021EF02F00FEF02F0570E866FFE0E876F16
:1004980076CF88F1896B75CF8AF18B6B68EC1AF08F
:1004A800DEEF00F0719871888E0E866FFE0E876FF2
:1004B80068EC1AF0DEEF00F0C70E866FFD0E876F4E
:1004C80068EC1AF0000E0101B46F000E236F21ECE6
:1004D8001BF0E806D8B473EF02F075EF02F06BEF8B
:1004E80002F09CEF02F0FB0E866FFF0E876F450E41
:1004F800B425D96EDA6A010EDA22DF50906F905176
:10050800886F896B68EC1AF0920E0101B425D96ED8
:10051800DA6A010EDA2253EC1AF0DF6E450E010199
:10052800B425D96EDA6A010EDA22DF502327B42BFC
:10053800450E0101B425D96EDA6A010EDA2253ECB0
:100548001AF0DF6E0D0EDE18D8B4ADEF02F0AFEF83
:1005580002F0B8EF02F0110E0101B465B6EF02F037
:10056800B8EF02F077EF02F09A0E0101866FFF0EE6
:10057800876F68EC1AF0380E0101866FFF0E876FDF
:10058800450E886F010E896F68EC1AF0EC0E0101B8
:10059800866FFE0E876F23C188F1896B68EC1AF0AD
:1005A800920E0101B425D96EDA6A010EDA22000E24
:1005B800DF6EB451906F916B010E9027000E91235E
:1005C800920E9025D96E010E9121DA6E23C1DFFFBC
:1005D800DEEF00F0000EB56F09EF03F0B351020D26
:1005E800A80EF324D96E010EF420DA6EDECF80F067
:1005F800DDCF81F0920EB525D96EDA6A010EDA22C6
:10060800DF50EFEC11F00101B52B920EB525D96E34
:10061800DA6A010EDA22DF50A76FA751D8A417EFC4
:1006280003F019EF03F0F2EF02F0B351020DA80E38
:10063800F324D96E010EF420DA6EDECF80F0DDCF20
:1006480081F0920EB525D96EDA6A010EDA22DF50F2
:10065800EFEC11F00101B351020DA80EF324D96E8D
:10066800010EF420DA6EDECF80F0DDCF81F0B551D7
:10067800906F916B010E9027000E9123920E90259A
:10068800D96E010E9121DA6EDF50EFEC11F0560EA3
:100698000101866FFF0E876F68EC1AF0380E0101B2
:1006A800866FFF0E876F450E886F010E896F68ECA5
:1006B8001AF0EC0E0101866FFE0E876F23C188F1D8
:1006C800896B68EC1AF0DEEF00F02405D8A46FEF10
:1006D80003F071EF03F0A0EF03F0CA0E866FFF0E70
:1006E800876F68EC1AF08D0E0101866FFF0E876F19
:1006F800590E886F010E896F68EC1AF0720E0101AD
:10070800866FFF0E876F22C188F1896B68EC1AF03B
:10071800000E0101226F590E00017C6F010E7D6FE2
:10072800000E7F6F000E7E6F000E816F140E806FBB
:1007380033EC11F0A6EF03F0F00E866FFD0E876F15
:1007480068EC1AF0000E0101246FDEEF00F0CB0E0A
:10075800866FFE0E876FB2C188F1896B68EC1AF05C
:10076800DEEF00F0B251906F916B9151000AD8B44E
:10077800C0EF03F0ABEF03F090513F0AD8B4EEEFAF
:1007880000F06D0AD8B469EF03F0010AD8B4EEEFAF
:1007980002F0090AD8B4A6EF01F0380AD8B4CFEFAE
:1007A80001F00F0AD8B460EF02F0020AD8B49EEF45
:1007B80001F01D0AD8B456EF02F0080AD8B4BBEF0E
:1007C80001F0ABEF03F078EF00F0C2C0D9FFC3C06F
:1007D800DAFFDECFF6FFDDCFF7FFF86A0800F55045
:1007E800250AD8A4FAEF03F0FCEF03F073EF06F044
:1007F800C2C0D9FFC3C0DAFFDE2A000EDD22000E18
:100808000001CB6F000ECA6FCAC0CEF0CBC0CFF0CC
:10081800CC69CD69000E0101746F000E736F61EF32
:1008280004F00001CE81C2C0D9FFC3C0DAFFDE2ABE
:10083800000EDD2261EF04F00001CE8317EF04F013
:100848000001CE8517EF04F00001CE8717EF04F002
:100858000001CE8917EF04F0000E746F010E736F5C
:1008680061EF04F0C2C0D9FFC3C0DAFFDECFF6FFE4
:10087800DDCFF7FFF86A0800F5506D6F6E6B6E51AB
:10088800000AD8B44AEF04F030EF04F06D51200AA2
:10089800D8B428EF04F0030AD8B42CEF04F0080AFF
:1008A800D8B424EF04F0060AD8B415EF04F01D0AF2
:1008B800D8B420EF04F030EF04F001017351741143
:1008C800D8B469EF04F06BEF04F036EF04F00001E0
:1008D800CEA171EF04F073EF04F074EF04F0CE933F
:1008E800C2C0D9FFC3C0DAFFDECFF6FFDDCFF7FF06
:1008F800F86A0800F5502A0AD8A485EF04F087EFB3
:1009080004F0B0EF04F0C2C0D9FFC3C0DAFFDE2A9A
:10091800000EDD22C4C0D9FFC5C0DAFFDFCF6DF1FC
:10092800020EDE26DFCF6EF1000EDD226DC1D9FF8B
:100938006EC1DAFFDECFCAF0DDCFCBF0CBBFA9EFB7
:1009480004F0A7EF04F0F5EF04F0CE81CA6DCB1FD9
:10095800D8B0CB2BF5EF04F0C2C0D9FFC3C0DAFF83
:10096800DECF83F0DDCF84F00EEC0EF083C0CAF04A
:1009780084C0CBF0C7EF04F0C2C0D9FFC3C0DAFF10
:10098800DE2A000EDD22D00E01016D6FFF0E6E6FA4
:10099800C2C0D9FFC3C0DAFFDECFF6FFDDCFF7FF55
:1009A800F86A0800F5506F6F706B6D516F276E51C4
:1009B800702370510AE10A0E6F5DD8A0E6EF04F0CB
:1009C800E9EF04F0010EEAEF04F0000E756F766BA4
:1009D80075517611D8A4F3EF04F0F5EF04F0C0EFE9
:1009E80004F0C2C0D9FFC3C0DAFFDECFF6FFDDCF07
:1009F800F7FFF86A0800F550630AD8A406EF05F077
:100A080008EF05F030EF05F0C2C0D9FFC3C0DAFF28
:100A1800DE2A000EDD22C4C0D9FFC5C0DAFFDFCF51
:100A28006DF1020EDE26DFCF6EF1000EDD226DC104
:100A3800D9FF6EC1DAFFDF5001017F6FC0C099F0A6
:100A4800C1C09AF07FC19BF028EC17F099C0C0F0A4
:100A58009AC0C1F090EF06F0C2C0D9FFC3C0DAFF58
:100A6800DECFF6FFDDCFF7FFF86A0800F550730A0E
:100A7800D8A441EF05F043EF05F06EEF05F0C2C0D2
:100A8800D9FFC3C0DAFFDE2A000EDD22C4C0D9FFB9
:100A9800C5C0DAFFDFCF6DF1020EDE26DFCF6EF1C3
:100AA800000EDD226DC1D9FF6EC1DAFFDECF71F114
:100AB800DDCF72F1C0C087F0C1C088F071C189F084
:100AC80072C18AF0AAEC0FF087C0C0F088C0C1F0EC
:100AD80090EF06F0C2C0D9FFC3C0DAFFDECFF6FF41
:100AE800DDCFF7FFF86A0800F550750AD8A47FEF44
:100AF80005F081EF05F0C3EF05F0C2C0D9FFC3C010
:100B0800DAFFDE2A000EDD22C4C0D9FFC5C0DAFF35
:100B1800DFCF6DF1020EDE26DFCF6EF1000EDD2293
:100B28006DC1D9FF6EC1DAFFDECF6FF1DDCF70F195
:100B38006FC177F170C178F10101796B7A6B7B6BCA
:100B48007C6B7D6B7E6BC0C099F0C1C09AF077C199
:100B58009BF078C19CF079C19DF07AC19EF07BC171
:100B68009FF07CC1A0F07DC1A1F07EC1A2F009EC8C
:100B78000CF099C0C0F09AC0C1F090EF06F0C2C066
:100B8800D9FFC3C0DAFFDECFF6FFDDCFF7FFF86A83
:100B98000800F550780AD8B4D4EF05F0D6EF05F080
:100BA800E9EF05F0C2C0D9FFC3C0DAFFDECFF6FF18
:100BB800DDCFF7FFF86A0800F550580AD8A4E7EF28
:100BC80005F0E9EF05F039EF06F0C2C0D9FFC3C060
:100BD800DAFFDECFF6FFDDCFF7FFF86A0800F5CFC2
:100BE8007FF1C2C0D9FFC3C0DAFFDE2A000EDD22C2
:100BF800C4C0D9FFC5C0DAFFDFCF6DF1020EDE2613
:100C0800DFCF6EF1000EDD226DC1D9FF6EC1DAFFB4
:100C1800DECF6FF1DDCF70F16FC177F170C178F180
:100C28000101796B7A6B7B6B7C6B7D6B7E6BC0C0D3
:100C380099F0C1C09AF077C19BF078C19CF079C156
:100C48009DF07AC19EF07BC19FF07CC1A0F07DC170
:100C5800A1F07EC1A2F07FC1A3F02FEC09F099C0EA
:100C6800C0F09AC0C1F090EF06F0C2C0D9FFC3C06F
:100C7800DAFFDECFF6FFDDCFF7FFF86A0800F550A0
:100C8800250AD8A44AEF06F04CEF06F065EF06F007
:100C9800C2C0D9FFC3C0DAFFDE2A000EDD22000E73
:100CA80000017F6F250E7E6FC0C080F0C1C081F04B
:100CB800BDEC15F0000E0001C16F010EC06F90EF82
:100CC80006F0C2C0D9FFC3C0DAFFDE2A000EDD225B
:100CD800000E0001C16F000EC06F90EF06F0C2C099
:100CE800D9FFC3C0DAFFDECFF6FFDDCFF7FFF86A22
:100CF8000800F55000017E6F7F6BC0C080F0C1C056
:100D080081F0BDEC15F0C2C0D9FFC3C0DAFFDE2AFE
:100D1800000EDD225EEF06F0120047C0D9FF48C082
:100D2800DAFFDECFF6FFDDCFF7FFF86A0800F550EF
:100D3800250AD8A4A2EF06F0A4EF06F012EF09F0F6
:100D480047C0D9FF48C0DAFFDE2A000EDD22000EB8
:100D58000001CB6F000ECA6FCAC0CEF0CBC0CFF077
:100D6800CC69CD69000E526E000E516E08EF07F087
:100D78000001CE8147C0D9FF48C0DAFFDE2A000E45
:100D8800DD2208EF07F00001CE83BEEF06F0000178
:100D9800CE85BEEF06F00001CE87BEEF06F000015B
:100DA800CE89BEEF06F0000E526E010E516E08EFAE
:100DB80007F047C0D9FF48C0DAFFDECFF6FFDDCF26
:100DC800F7FFF86A0800F5504B6E4C6A4C50000A61
:100DD800D8B4F1EF06F0D7EF06F04B50200AD8B49C
:100DE800CFEF06F0030AD8B4D3EF06F0080AD8B458
:100DF800CBEF06F0060AD8B4BCEF06F01D0AD8B44B
:100E0800C7EF06F0D7EF06F051505210D8B40FEFE5
:100E180007F011EF07F0DDEF06F00001CEA117EFA4
:100E280007F019EF07F01AEF07F0CE9347C0D9FF84
:100E380048C0DAFFDECFF6FFDDCFF7FFF86A08001B
:100E4800F5502A0AD8A42BEF07F02DEF07F056EF3C
:100E580007F047C0D9FF48C0DAFFDE2A000EDD22BE
:100E680049C0D9FF4AC0DAFFDFCF4BF0020EDE26B9
:100E7800DFCF4CF0000EDD224BC0D9FF4CC0DAFFAB
:100E8800DECFCAF0DDCFCBF0CBBF4FEF07F04DEF91
:100E980007F09AEF07F0CE81CA6DCB1FD8B0CB2BE5
:100EA8009AEF07F047C0D9FF48C0DAFFDECF08F055
:100EB800DDCF09F0DDEC0EF008C0CAF009C0CBF0B8
:100EC8006DEF07F047C0D9FF48C0DAFFDE2A000EF1
:100ED800DD22D00E4B6EFF0E4C6E47C0D9FF48C0C6
:100EE800DAFFDECFF6FFDDCFF7FFF86A0800F5502E
:100EF8004D6E4E6A4B504D264C504E224E500AE1D4
:100F08000A0E4D5CD8A08BEF07F08EEF07F0010EAC
:100F18008FEF07F0000E536E546A53505410D8A444
:100F280098EF07F09AEF07F066EF07F047C0D9FF90
:100F380048C0DAFFDECFF6FFDDCFF7FFF86A08001A
:100F4800F550630AD8A4ABEF07F0ADEF07F0D4EF84
:100F580007F047C0D9FF48C0DAFFDE2A000EDD22BD
:100F680049C0D9FF4AC0DAFFDFCF4BF0020EDE26B8
:100F7800DFCF4CF0000EDD224BC0D9FF4CC0DAFFAA
:100F8800DF505D6E45C01EF046C01FF05DC020F00A
:100F980086EC17F01EC045F01FC046F02EEF09F092
:100FA80047C0D9FF48C0DAFFDECFF6FFDDCFF7FF35
:100FB800F86A0800F550730AD8A4E5EF07F0E7EFE0
:100FC80007F012EF08F047C0D9FF48C0DAFFDE2A61
:100FD800000EDD2249C0D9FF4AC0DAFFDFCF4BF04F
:100FE800020EDE26DFCF4CF0000EDD224BC0D9FF0B
:100FF8004CC0DAFFDECF4FF0DDCF50F045C00CF02B
:1010080046C00DF04FC00EF050C00FF070EC10F05D
:101018000CC045F00DC046F02EEF09F047C0D9FFCF
:1010280048C0DAFFDECFF6FFDDCFF7FFF86A080029
:10103800F550750AD8A423EF08F025EF08F066EFFD
:1010480008F047C0D9FF48C0DAFFDE2A000EDD22CB
:1010580049C0D9FF4AC0DAFFDFCF4BF0020EDE26C7
:10106800DFCF4CF0000EDD224BC0D9FF4CC0DAFFB9
:10107800DECF4DF0DDCF4EF04DC055F04EC056F0EE
:10108800576A586A596A5A6A5B6A5C6A45C01EF0B0
:1010980046C01FF055C020F056C021F057C022F0BE
:1010A80058C023F059C024F05AC025F05BC026F080
:1010B8005CC027F00CEC0DF01EC045F01FC046F0D8
:1010C8002EEF09F047C0D9FF48C0DAFFDECFF6FFA0
:1010D800DDCFF7FFF86A0800F550780AD8B477EF43
:1010E80008F079EF08F08CEF08F047C0D9FF48C046
:1010F800DAFFDECFF6FFDDCFF7FFF86A0800F5501C
:10110800580AD8A48AEF08F08CEF08F0DBEF08F053
:1011180047C0D9FF48C0DAFFDECFF6FFDDCFF7FFC3
:10112800F86A0800F5CF5DF047C0D9FF48C0DAFF7C
:10113800DE2A000EDD2249C0D9FF4AC0DAFFDFCF20
:101148004BF0020EDE26DFCF4CF0000EDD224BC046
:10115800D9FF4CC0DAFFDECF4DF0DDCF4EF04DC0E9
:1011680055F04EC056F0576A586A596A5A6A5B6A0F
:101178005C6A45C01EF046C01FF055C020F056C03E
:1011880021F057C022F058C023F059C024F05AC0AB
:1011980025F05BC026F05CC027F05DC028F09CEC11
:1011A8000AF01EC045F01FC046F02EEF09F047C0F8
:1011B800D9FF48C0DAFFDECFF6FFDDCFF7FFF86AC8
:1011C8000800F550250AD8A4ECEF08F0EEEF08F077
:1011D80005EF09F047C0D9FF48C0DAFFDE2A000E44
:1011E800DD22000E046E250E036E45C005F046C0D4
:1011F80006F009EC16F0000E466E010E456E2EEF55
:1012080009F047C0D9FF48C0DAFFDE2A000EDD2208
:10121800000E466E000E456E2EEF09F047C0D9FF4E
:1012280048C0DAFFDECFF6FFDDCFF7FFF86A080027
:10123800F550036E046A45C005F046C006F009EC97
:1012480016F047C0D9FF48C0DAFFDE2A000EDD22BB
:10125800FFEF08F012000001CDBF35EF09F037EFBE
:1012680009F038EF09F0CE93CDBF45EF09F0CD5125
:1012780006E1CC05D8B043EF09F045EF09F04BEF94
:1012880009F0000EB16F010EB06F4FEF09F0CCC03E
:10129800B0F0CDC0B1F0CAC0B2F0CBC0B3F0CEA9A7
:1012A80058EF09F05AEF09F05EEF09F0FE0EB22789
:1012B800FF0EB3239BC0B4F09CC0B5F09DC0B6F040
:1012C8009EC0B7F09FC0B8F0A0C0B9F0A1C0BAF0F6
:1012D800A2C0BBF0000EBD6F1F0EBC6F000E010157
:1012E800446F2BEF0AF0BC07D8A0BD070F0EB4154A
:1012F800BE6FBF6BBFBF8AEF09F0BF5109E10A0E8D
:10130800BE5DD8A08AEF09F08CEF09F094EF09F0E0
:10131800570EBE25BE6F000EBF21BF6F9AEF09F0B2
:10132800300EBE25BE6F000EBF21BF6FBF0EA46F6B
:10133800FF0EA56FA351A66FA76BA451A627A551B1
:10134800A723A7510AE11A0EA65DD8A0AEEF09F0AF
:10135800B1EF09F0010EB2EF09F0000EAC6FAD6B02
:10136800AC51AD11D8B4BBEF09F0BDEF09F0EDEF0A
:1013780009F09F0EA46FFF0EA56F200EBE11A66F79
:10138800000EBF11A76FA451A627A551A723A751E7
:101398000AE11A0EA65DD8A0D4EF09F0D7EF09F03C
:1013A800010ED8EF09F0000EAE6FAF6BAE51AF1162
:1013B800D8B4E1EF09F0E3EF09F0EDEF09F0BEC0B2
:1013C80082F0BFC083F0F8EC16F082C0BEF083C094
:1013D800BFF0250E0001BC25D96E010EBD21DA6EC5
:1013E800BEC0DFFFB007D8A0B107B207D8A0B307C7
:1013F800B4C0A4F0B5C0A5F0B6C0A6F0B7C0A7F0B9
:10140800B8C0A8F0B9C0A9F0BAC0AAF0BBC0ABF088
:10141800050E18EF0AF0D890AB33AA33A933A833D6
:10142800A733A633A533A433E82E0FEF0AF0A4C0E0
:10143800B4F0A5C0B5F0A6C0B6F0A7C0B7F0A8C074
:10144800B8F0A9C0B9F0AAC0BAF0ABC0BBF00001AF
:10145800BDBF38EF0AF0BD5109E1020EBC5DD8A04E
:1014680038EF0AF03AEF0AF06AEF0AF0B451B51112
:10147800B611B711B811B911BA11BB11D8A447EFF9
:101488000AF049EF0AF077EF09F0B1BF56EF0AF01A
:10149800B15106E1B005D8B054EF0AF056EF0AF0A2
:1014A80077EF09F0B3BF61EF0AF0B35108E1B20575
:1014B800D8A061EF0AF063EF0AF06AEF0AF0CEB342
:1014C80068EF0AF06AEF0AF077EF09F0CEA96FEF3C
:1014D8000AF071EF0AF087EF0AF0BC07D8A0BD0741
:1014E800250EBC25D96E010EBD21DA6EA3C0DFFF23
:1014F800BC07D8A0BD07250EBC25D96E010EBD219D
:10150800DA6E300EDF6E99C08EF09AC08FF0250E1D
:10151800BC25906F010EBD21916FB2C092F0B3C08F
:1015280093F02EEC14F08EC099F08FC09AF0120050
:101538000001CDBFA2EF0AF0A4EF0AF0A5EF0AF070
:10154800CE93CDBFB2EF0AF0CD5106E1CC05D8B0AD
:10155800B0EF0AF0B2EF0AF0B8EF0AF0000E366EFC
:10156800010E356EBCEF0AF0CCC035F0CDC036F0B8
:10157800CAC037F0CBC038F0CEA9C5EF0AF0C7EF24
:101588000AF0CBEF0AF0FE0E3726FF0E382220C0F5
:1015980039F021C03AF022C03BF023C03CF024C00F
:1015A8003DF025C03EF026C03FF027C040F0000EB9
:1015B800426E1F0E416E000E0101446F97EF0BF053
:1015C8004106D8A042060F0E3914436E446A44BE41
:1015D800F7EF0AF0445009E10A0E435CD8A0F7EF90
:1015E8000AF0F9EF0AF001EF0BF0570E4324436EAF
:1015F800000E4420446E07EF0BF0300E4324436E78
:10160800000E4420446EBF0E296EFF0E2A6E28502D
:101618002B6E2C6A29502B262A502C222C500AE19A
:101628001A0E2B5CD8A01BEF0BF01EEF0BF0010E6F
:101638001FEF0BF0000E316E326A31503210D8B401
:1016480028EF0BF02AEF0BF05AEF0BF09F0E296EE4
:10165800FF0E2A6E200E43102B6E000E44102C6EC7
:1016680029502B262A502C222C500AE11A0E2B5CCA
:10167800D8A041EF0BF044EF0BF0010E45EF0BF053
:10168800000E336E346A33503410D8B44EEF0BF07A
:1016980050EF0BF05AEF0BF043C007F044C008F0CE
:1016A80057EC17F007C043F008C044F0250E41245A
:1016B800D96E010E4220DA6E43C0DFFF3506D8A08E
:1016C80036063706D8A0380639C029F03AC02AF0BD
:1016D8003BC02BF03CC02CF03DC02DF03EC02EF09E
:1016E8003FC02FF040C030F0050E84EF0BF0D890CB
:1016F80030322F322E322D322C322B322A322932EE
:10170800E82E7BEF0BF029C039F02AC03AF02BC045
:101718003BF02CC03CF02DC03DF02EC03EF02FC059
:101728003FF030C040F042BEA3EF0BF0425009E159
:10173800020E415CD8A0A3EF0BF0A5EF0BF0D6EF9B
:101748000BF039503A103B103C103D103E103F1042
:101758004010D8A4B2EF0BF0B4EF0BF0E4EF0AF0AE
:1017680036BEC1EF0BF0365006E13504D8B0BFEFF6
:101778000BF0C1EF0BF0E4EF0AF038BECCEF0BF042
:10178800385008E13704D8A0CCEF0BF0CEEF0BF0BF
:10179800D6EF0BF00001CEB3D4EF0BF0D6EF0BF081
:1017A800E4EF0AF00001CEA9DCEF0BF0DEEF0BF05E
:1017B800F4EF0BF04106D8A04206250E4124D96E5D
:1017C800010E4220DA6E28C0DFFF4106D8A042068B
:1017D800250E4124D96E010E4220DA6E300EDF6EDE
:1017E8001EC013F01FC014F0250E4124156E010E03
:1017F8004220166E37C017F038C018F0F8EC14F015
:1018080013C01EF014C01FF012000001CDBF0FEF6F
:101818000CF011EF0CF012EF0CF0CE93CDBF1FEFD0
:101828000CF0CD5106E1CC05D8B01DEF0CF01FEF40
:101838000CF025EF0CF0000EAC6F010EAB6F29EF2A
:101848000CF0CCC0ABF0CDC0ACF0CAC0ADF0CBC092
:10185800AEF09BC0AFF09CC0B0F09DC0B1F09EC090
:10186800B2F09FC0B3F0A0C0B4F0A1C0B5F0A2C060
:10187800B6F0000EB86F1F0EB76F000E0101446F6F
:10188800BDEF0CF0B707D8A0B807250EB725D96E5D
:10189800010EB821DA6EAFC07CF0B0C07DF0B1C0E7
:1018A8007EF0B2C07FF0B3C080F0B4C081F0B5C0A4
:1018B80082F0B6C083F00A0E846F000E856F000EAA
:1018C800866F000E876F000E886F000E896F000EFE
:1018D8008A6F000E8B6F5DEC13F07CC0A3F07DC0A7
:1018E800A4F07EC0A5F07FC0A6F080C0A7F081C09C
:1018F800A8F082C0A9F083C0AAF00001A351300F5C
:10190800DF6EAB07D8A0AC07AD07D8A0AE07AFC055
:101918007CF0B0C07DF0B1C07EF0B2C07FF0B3C043
:1019280080F0B4C081F0B5C082F0B6C083F00A0E72
:10193800846F000E856F000E866F000E876F000E95
:10194800886F000E896F000E8A6F000E8B6F6CEC2B
:1019580012F07CC0AFF07DC0B0F07EC0B1F07FC0A7
:10196800B2F080C0B3F081C0B4F082C0B5F083C0DB
:10197800B6F00001B751B811D8B4C5EF0CF0C7EFF5
:101988000CF0F7EF0CF0AF51B011B111B211B31167
:10199800B411B511B611D8A4D4EF0CF0D6EF0CF0F1
:1019A80046EF0CF0ACBFE3EF0CF0AC5106E1AB0531
:1019B800D8B0E1EF0CF0E3EF0CF046EF0CF0AEBF5F
:1019C800EEEF0CF0AE5108E1AD05D8A0EEEF0CF04B
:1019D800F0EF0CF0F7EF0CF0CEB3F5EF0CF0F7EFFB
:1019E8000CF046EF0CF099C08EF09AC08FF0250EDF
:1019F800B725906F010EB821916FADC092F0AEC0BF
:101A080093F02EEC14F08EC099F08FC09AF012006B
:101A18000001CDBF12EF0DF014EF0DF015EF0DF032
:101A2800CE93CDBF22EF0DF0CD5106E1CC05D8B055
:101A380020EF0DF022EF0DF028EF0DF0000E316EC3
:101A4800010E306E2CEF0DF0CCC030F0CDC031F06F
:101A5800CAC032F0CBC033F020C034F021C035F01A
:101A680022C036F023C037F024C038F025C039F042
:101A780026C03AF027C03BF0000E3D6E1F0E3C6EAC
:101A8800000E0101446FBFEF0DF03C06D8A03D06E3
:101A9800250E3C24D96E010E3D20DA6E34C001F0CB
:101AA80035C002F036C003F037C004F038C005F086
:101AB80039C006F03AC007F03BC008F00A0E096EBC
:101AC800000E0A6E000E0B6E000E0C6E000E0D6EF0
:101AD800000E0E6E000E0F6E000E106EC6EC13F0A8
:101AE80001C028F002C029F003C02AF004C02BF07E
:101AF80005C02CF006C02DF007C02EF008C02FF04E
:101B08002850300FDF6E3006D8A031063206D8A034
:101B1800330634C001F035C002F036C003F037C0D8
:101B280004F038C005F039C006F03AC007F03BC0F1
:101B380008F00A0E096E000E0A6E000E0B6E000EFB
:101B48000C6E000E0D6E000E0E6E000E0F6E000E67
:101B5800106EE5EC12F001C034F002C035F003C09D
:101B680036F004C037F005C038F006C039F007C0B9
:101B78003AF008C03BF03C503D10D8B4C6EF0DF029
:101B8800C8EF0DF0F9EF0DF034503510361037105E
:101B9800381039103A103B10D8A4D5EF0DF0D7EF14
:101BA8000DF049EF0DF031BEE4EF0DF0315006E1D4
:101BB8003004D8B0E2EF0DF0E4EF0DF049EF0DF08E
:101BC80033BEEFEF0DF0335008E13204D8A0EFEF49
:101BD8000DF0F1EF0DF0F9EF0DF00001CEB3F7EFD6
:101BE8000DF0F9EF0DF049EF0DF01EC013F01FC016
:101BF80014F0250E3C24156E010E3D20166E32C0E1
:101C080017F033C018F0F8EC14F013C01EF014C02D
:101C18001FF01200000E0001916F000E906F000E71
:101C28008A6F000E896F1BEF0EF0834B842B010E19
:101C38008F6F83C0F6FF84C0F7FFF86A0800F5507D
:101C4800200AD8B42AEF0EF02CEF0EF04AEF0EF06F
:101C5800F70E856FFF0E866F83C0F6FF84C0F7FF0F
:101C6800F86A0800F550876F886B85518727865179
:101C78008823885109E1050E875DD8A046EF0EF04C
:101C880048EF0EF04AEF0EF0000E8F6F8FC08BF00A
:101C98008C6B8B518C11D8A454EF0EF056EF0EF0CC
:101CA80019EF0EF060EF0EF0000E8A6F010E896FCB
:101CB800834B842B98EF0EF083C0F6FF84C0F7FFA8
:101CC800F86A0800F550856F866B8651000AD8B40B
:101CD80070EF0EF098EF0EF085512B0AD8B45CEF38
:101CE8000EF0060AD8B458EF0EF098EF0EF090C038
:101CF8007CF091C07DF0000E7F6F0A0E7E6F7CEC49
:101D08001AF083C0F6FF84C0F7FFF86A0800F550A0
:101D180000017C5F000E7D5B300E7C25906F000E0D
:101D28007D21916F5CEF0EF0D00E856FFF0E866FF0
:101D380083C0F6FF84C0F7FFF86A0800F550876F84
:101D4800886B855187278651882388510AE10A0EB6
:101D5800875DD8A0B2EF0EF0B5EF0EF0010EB6EF2A
:101D68000EF0000E8D6F8E6B8D518E11D8A4BFEFC3
:101D78000EF0C1EF0EF07BEF0EF089518A11D8A456
:101D8800C8EF0EF0CAEF0EF0D8EF0EF090C085F055
:101D980091C086F0851F861F854B862B85C083F0F2
:101DA80086C084F0DCEF0EF090C083F091C084F020
:101DB8001200000E166E000E156E000E0F6E000E4D
:101DC8000E6EE9EF0EF0084A092A010E146E08C0DB
:101DD800F6FF09C0F7FFF86A0800F550200AD8B4E2
:101DE800F8EF0EF0FAEF0EF018EF0FF0F70E0A6E9C
:101DF800FF0E0B6E08C0F6FF09C0F7FFF86A08006F
:101E0800F5500C6E0D6A0A500C260B500D220D5021
:101E180009E1050E0C5CD8A014EF0FF016EF0FF0D7
:101E280018EF0FF0000E146E14C010F0116A105065
:101E38001110D8A422EF0FF024EF0FF0E7EF0EF007
:101E48002EEF0FF0000E0F6E010E0E6E084A092AD3
:101E580065EF0FF008C0F6FF09C0F7FFF86A080041
:101E6800F5500A6E0B6A0B50000AD8B43EEF0FF01B
:101E780065EF0FF00A502B0AD8B42AEF0FF0060AC4
:101E8800D8B426EF0FF065EF0FF015C001F016C0BB
:101E980002F0000E046E0A0E036EA4EC1AF008C0DD
:101EA800F6FF09C0F7FFF86A0800F550015E000E5A
:101EB800025A300E0124156E000E0220166E2AEF0B
:101EC8000FF0D00E0A6EFF0E0B6E08C0F6FF09C0A9
:101ED800F7FFF86A0800F5500C6E0D6A0A500C26D8
:101EE8000B500D220D500AE10A0E0C5CD8A07FEFB2
:101EF8000FF082EF0FF0010E83EF0FF0000E126E5D
:101F0800136A12501310D8A48CEF0FF08EEF0FF055
:101F180049EF0FF00E500F10D8A495EF0FF097EF80
:101F28000FF0A5EF0FF015C00AF016C00BF00A1E4F
:101F38000B1E0A4A0B2A0AC008F00BC009F0A9EFC9
:101F48000FF015C008F016C009F0120021EEC0F01D
:101F580010EE8CF0060EDBCFE3FFE806FCE289C04A
:101F680097F08AC098F0000197519811D8A4BFEF54
:101F78000FF0C1EF0FF0C5EF0FF08C0E976F000E4A
:101F8800986F97C07CF098C07DF04FEC19F07CC03A
:101F98009BF07DC09CF0CCC099F0CDC09AF00001B8
:101FA8009ABFD9EF0FF0DBEF0FF0F0EF0FF09B5176
:101FB800995D9A51800A8B6F9C51800A8B59D8A0E1
:101FC800E8EF0FF0EAEF0FF0ECEF0FF0F0EF0FF0A3
:101FD80099C09BF09AC09CF09BC099F09CC09AF065
:101FE800CAC095F0CBC096F0CEB1FDEF0FF0FFEF71
:101FF8000FF01DEF10F00EEF10F0000E7F6F200EA7
:102008007E6F87C080F088C081F0BDEC15F00001BC
:102018009B4B9C2B95519B5D9C51800A8B6F9651D5
:10202800800A8B59D8A01BEF10F01DEF10F001EFBC
:1020380010F0000E946F000E936F37EF10F097C0FA
:10204800D9FF98C0DAFFDF508B6F8B517E6F7F6BA3
:1020580087C080F088C081F0BDEC15F00001974B77
:10206800982B934B942B9951935D9451800A8B6FC5
:102078009A51800A8B59D8A044EF10F046EF10F01F
:1020880023EF10F0CEA14BEF10F04DEF10F06BEFF7
:1020980010F05CEF10F0000E7F6F200E7E6F87C08F
:1020A80080F088C081F0BDEC15F000019B4B9C2BA3
:1020B80095519B5D9C51800A8B6F9651800A8B5974
:1020C800D8A069EF10F06BEF10F04FEF10F09BC045
:1020D80087F09CC088F0120021EEC0F010EE11F0DD
:1020E800060EDBCFE3FFE806FCE20EC01CF00FC0D3
:1020F8001DF01C501D10D8A484EF10F086EF10F0CE
:102108008AEF10F0110E1C6E000E1D6E1CC001F03F
:102118001DC002F0DDEC19F001C020F002C021F072
:10212800CCC01EF0CDC01FF01FBE9DEF10F09FEF7A
:1021380010F0B4EF10F020501E5C1F50800A106E93
:102148002150800A1058D8A0ACEF10F0AEEF10F074
:10215800B0EF10F0B4EF10F01EC020F01FC021F057
:1021680020C01EF021C01FF0CAC01AF0CBC01BF05F
:102178000001CEB1C2EF10F0C4EF10F0E1EF10F0A3
:10218800D2EF10F0000E046E200E036E0CC005F0A6
:102198000DC006F009EC16F0204A212A1A50205CDE
:1021A8002150800A106E1B50800A1058D8A0DFEF0B
:1021B80010F0E1EF10F0C6EF10F0000E196E000EEF
:1021C800186EFAEF10F01CC0D9FF1DC0DAFFDF50FF
:1021D800106E1050036E046A0CC005F00DC006F0B6
:1021E80009EC16F01C4A1D2A184A192A1E50185CB8
:1021F8001950800A106E1F50800A1058D8A007EF97
:1022080011F009EF11F0E7EF10F00001CEA10FEF88
:1022180011F011EF11F02EEF11F01FEF11F0000E79
:10222800046E200E036E0CC005F00DC006F009EC1C
:1022380016F0204A212A1A50205C2150800A106E7C
:102248001B50800A1058D8A02CEF11F02EEF11F077
:1022580013EF11F020C00CF021C00DF012007CC06B
:1022680086F07DC087F0000180518111D8A43FEF2E
:1022780011F041EF11F043EF11F0EEEF11F086C0CD
:10228800D9FF87C0DAFF7EC0DFFF80518625826FC5
:1022980081518721836FFF0E8225D96EFF0E83211E
:1022A800DA6E7EC0DFFF815107E1030E805DD8B092
:1022B80060EF11F062EF11F064EF11F0EEEF11F042
:1022C80020EE01F08651D9268751DA227EC0DFFF41
:1022D80020EE02F08651D9268751DA227EC0DFFF30
:1022E80080518625826F81518721836FFE0E82255A
:1022F800D96EFF0E8321DA6E7EC0DFFF80518625FE
:10230800826F81518721836FFD0E8225D96EFF0E62
:102318008321DA6E7EC0DFFF815107E1070E805D01
:10232800D8B099EF11F09BEF11F09DEF11F0EEEF9F
:1023380011F020EE03F08651D9268751DA227EC0AB
:10234800DFFF80518625826F81518721836FFC0EC4
:102358008225D96EFF0E8321DA6E7EC0DFFF8151A0
:1023680007E1090E805DD8B0BCEF11F0BEEF11F0A7
:10237800C0EF11F0EEEF11F086C082F087C083F055
:10238800821F831F824B832B030E8215846F856BFC
:1023980084518627855187238451805F8551815BCD
:1023A800FC0E8017FF0E8117E5EF11F086C0D9FFEC
:1023B80087C0DAFF7EC0DFFF8007D8A08107864B81
:1023C800872B80518111D8A4ECEF11F0EEEF11F0BA
:1023D800DAEF11F012000001826F000E00017D6F2C
:1023E800190E7C6FF8EC19F00001805100087C6F21
:1023F8008151D8A0E82A00087D6F11EC1AF09E9050
:1024080017EC1BF00009D8B40CEF12F00EEF12F025
:1024180004EF12F0010E0001DA6F44EF12F082515E
:10242800DA150009D8B41BEF12F01DEF12F025EFF2
:1024380012F0000E7D6F000E7C6FF8EC19F02BEF98
:1024480012F0000E7D6F190E7C6FF8EC19F0000188
:10245800DA51DA25DA6F805100087C6F8151D8A0F3
:10246800E82A00087D6F11EC1AF09E9017EC1BF01B
:102478000009D8B442EF12F044EF12F03AEF12F02C
:102488000001DA51D8A44BEF12F04DEF12F013EF20
:1024980012F0000E7D6F000E7C6FF8EC19F0000151
:1024A800805100087C6F8151D8A0E82A00087D6F10
:1024B80011EC1AF09E9017EC1BF00009D8B467EFE6
:1024C80012F069EF12F05FEF12F00001822B120098
:1024D80020EE8CF0070EDE6AE806FDE2000184516A
:1024E800851186118711881189118A118B11D8B429
:1024F80080EF12F082EF12F0D4EF12F0010E946F19
:1025080090EF12F0D8908437853786378737883729
:1025180089378A378B37942B8BAF95EF12F097EF6B
:1025280012F086EF12F0D8908C378D378E378F37B0
:10253800903791379237933784517C5D85517D5917
:1025480086517E5987517F598851805989518159BF
:102558008A5182598B518359D8A0B5EF12F0B7EF41
:1025680012F0C8EF12F084517C5F85517D5B865173
:102578007E5B87517F5B8851805B8951815B8A5183
:10258800825B8B51835B8C81D8908B338A33893300
:1025980088338733863385338433942F97EF12F04B
:1025A8008CC07CF08DC07DF08EC07EF08FC07FF037
:1025B80090C080F091C081F092C082F093C083F007
:1025C800120020EE11F0070EDE6AE806FDE209505F
:1025D8000A100B100C100D100E100F101010D8B49C
:1025E800F8EF12F0FAEF12F04CEF13F0010E196E3B
:1025F80008EF13F0D89009360A360B360C360D362C
:102608000E360F361036192A10AE0DEF13F00FEFF5
:1026180013F0FEEF12F0D890113612361336143636
:1026280015361636173618360950015C0A50025806
:102638000B5003580C5004580D5005580E500658AE
:102648000F50075810500858D8A02DEF13F02FEF4F
:1026580013F040EF13F00950015E0A50025A0B5074
:10266800035A0C50045A0D50055A0E50065A0F5072
:10267800075A1050085A1180D89010320F320E3273
:102688000D320C320B320A320932192E0FEF13F0C9
:1026980011C001F012C002F013C003F014C004F01E
:1026A80015C005F016C006F017C007F018C008F0EE
:1026B8001200000184518511861187118811891132
:1026C8008A118B11D8B46BEF13F06DEF13F0B5EFDF
:1026D80013F0010E8C6F7BEF13F0D8908437853799
:1026E80086378737883789378A378B378C2B8BAF74
:1026F80080EF13F082EF13F071EF13F084517C5DDB
:1027080085517D5986517E5987517F598851805905
:10271800895181598A5182598B518359D8A097EF91
:1027280013F099EF13F0A9EF13F084517C5F8551F2
:102738007D5B86517E5B87517F5B8851805B8951C9
:10274800815B8A51825B8B51835BD8908B338A3350
:102758008933883387338633853384338C2F82EFEC
:1027680013F07CC07CF07DC07DF07EC07EF07FC021
:102778007FF080C080F081C081F082C082F083C089
:1027880083F0120009500A100B100C100D100E10D7
:102798000F101010D8B4D3EF13F0D5EF13F01DEFCE
:1027A80014F0010E116EE3EF13F0D89009360A36D3
:1027B8000B360C360D360E360F361036112A10AE83
:1027C800E8EF13F0EAEF13F0D9EF13F00950015CCA
:1027D8000A5002580B5003580C5004580D50055815
:1027E8000E5006580F50075810500858D8A0FFEF41
:1027F80013F001EF14F011EF14F00950015E0A50C4
:10280800025A0B50035A0C50045A0D50055A0E50D8
:10281800065A0F50075A1050085AD89010320F32E3
:102828000E320D320C320B320A320932112EEAEF17
:1028380013F001C001F002C002F003C003F004C0AD
:1028480004F005C005F006C006F007C007F008C090
:1028580008F012000001CEA134EF14F036EF14F0A6
:1028680040EF14F090C087F091C088F08EC089F0D6
:102878008FC08AF02DEC18F0000193BF46EF14F0DA
:1028880048EF14F04EEF14F092C097F093C098F010
:1028980052EF14F0000E986F000E976F000E966FAF
:1028A800000E956F65EF14F0000E7F6F200E7E6F9F
:1028B8008EC080F08FC081F0BDEC15F00001954B03
:1028C800962B9751955D9651800A946F9851800A7E
:1028D8009459D8A072EF14F074EF14F058EF14F074
:1028E800CEB179EF14F07BEF14F085EF14F090C0BF
:1028F80087F091C088F08EC089F08FC08AF02DECE7
:1029080018F090C07CF091C07DF04FEC19F00001F8
:1029180097517C258E6F98517D218F6F1200A39857
:1029280001012451D8A49BEF14F09DEF14F0F7EFA8
:1029380014F074CF5EF05E502227DDEF14F0590ECC
:10294800D825D96EDA6A010EDA225EC0DFFF010EE1
:10295800D96FD82BF7EF14F0590ED825D96EDA6A4B
:10296800010EDA225EC0DFFF5E50D8A4BEEF14F07D
:10297800C0EF14F0ADEF14F0020ED96FADEF14F004
:10298800590ED825D96EDA6A010EDA225EC0DFFF49
:10299800000ED96F000ED86F010E0101246FF7EFFA
:1029A80014F0E80E686FFF0E696F90EC1AF0F7EFFD
:1029B80014F00001D9516E6F6F6B6F51000AD8B4D3
:1029C800E8EF14F0D5EF14F06E51000AD8B4A3EF75
:1029D80014F0010AD8B4B0EF14F0030AD8B4C4EF65
:1029E80014F0D5EF14F012000001CEA1FEEF14F0A0
:1029F80000EF15F00AEF15F015C00CF016C00DF039
:102A080013C00EF014C00FF074EC18F018BE0FEFDE
:102A180015F011EF15F017EF15F017C01CF018C0DE
:102A28001DF01BEF15F0000E1D6E000E1C6E000E43
:102A38001B6E000E1A6E2DEF15F0000E046E200EA0
:102A4800036E13C005F014C006F009EC16F01A4A1C
:102A58001B2A1C501A5C1B50800A196E1D50800AD4
:102A68001958D8A03AEF15F03CEF15F021EF15F002
:102A78000001CEB142EF15F044EF15F04EEF15F01E
:102A880015C00CF016C00DF013C00EF014C00FF0F6
:102A980074EC18F015C001F016C002F0DDEC19F066
:102AA8001C500124136E1D500220146E1200000EDB
:102AB8000001E025D96EDA6A010EDA22000EDF6E17
:102AC80071A469EF15F06BEF15F080EF15F0000EAB
:102AD800E025D96EDA6A010EDA220101DF8202D816
:102AE80080EF15F00500FA6E0001D051FD6ED1514E
:102AF800FE6EFF6AFA50120071A285EF15F087EF9B
:102B080015F09CEF15F0000E0001E025D96EDA6A89
:102B1800010EDA220101DF8402D89CEF15F00500CE
:102B2800FA6E2051FD6E2151FE6EFF6AFA501200B6
:102B3800000E0001E025D96EDA6A010EDA22DF50B4
:102B4800D8B4A9EF15F0ABEF15F0BAEF15F002D82D
:102B5800B8EF15F00500FA6E01011E51FD6E1F5108
:102B6800FE6EFF6AFA501200BCEF15F03DEC1AF049
:102B78001200000180518111D8B4C5EF15F0C7EFDC
:102B880015F0D0EF15F080518111D8A4CEEF15F0D3
:102B9800D0EF15F0D5EF15F07E513CEC1BF008EFA7
:102BA80016F020EE04F08051D9268151DA22DE5049
:102BB800DE10D8B4E2EF15F0E4EF15F0FFEF15F0F2
:102BC80020EE04F08051D9268151DA2210EE02F06D
:102BD8008051E1268151E222DE50E65CE650800A0F
:102BE800866FDE50800A8659D8B0FDEF15F0FFEFEA
:102BF80015F008EF16F020EE02F08051D926815129
:102C0800DA22DE2A000EDD22120005500610D8B4A2
:102C180010EF16F012EF16F01BEF16F00550061025
:102C2800D8A419EF16F01BEF16F020EF16F003509A
:102C38006BEC1BF053EF16F020EE04F00550D9268C
:102C48000650DA22DE50DE10D8B42DEF16F02FEF42
:102C580016F04AEF16F020EE04F00550D92606507B
:102C6800DA2210EE02F00550E1260650E222DE508C
:102C7800E65CE650800A0B6EDE50800A0B58D8B02E
:102C880048EF16F04AEF16F053EF16F020EE02F078
:102C98000550D9260650DA22DE2A000EDD2212005F
:102CA800A39AB60E00017C6F2A0E7D6F48EC1BF0CC
:102CB800A3986E0E00017C6F310E7D6F43EC1BF004
:102CC800080E706E900E716E240E726E140E756E74
:102CD800340E766EF00E00017C6F360E7D6F52EC6E
:102CE8001BF0E00E00017C6F360E7D6F4DEC1BF083
:102CF800E60E00017C6F360E7D6F57EC1BF0000E60
:102D08000001DD6F000EE36F000EE26F080EE16F49
:102D1800000EE06F000EDF6F000EDE6FA38A120058
:102D280082C1C6F083C1C7F0000E0001C96F000E52
:102D3800C86FB2EF16F080C1C0F081C1C1F0C60EF5
:102D4800C26F000EC36F84C1C4F085C1C5F0E9EC41
:102D580003F00001C051C827C151C923C6C0F6FFFE
:102D6800C7C0F7FFF86A0800F5500009D8A4BFEFFC
:102D780016F0C1EF16F09FEF16F0C8C080F1C9C079
:102D880081F1120062C066F063C067F0000E0001B6
:102D9800C96F000EC86FE4EF16F060C045F061C05F
:102DA80046F0660E476E000E486E64C049F065C076
:102DB8004AF091EC06F045500001C8274650C92357
:102DC80066C0F6FF67C0F7FFF86A0800F55000090B
:102DD800D8A4F1EF16F0F3EF16F0D1EF16F0C8C053
:102DE80060F0C9C061F012009F0E0001846FFF0EF1
:102DF800856F82C086F083C087F08451862785510D
:102E0800872387510AE11A0E865DD8A00EEF17F0C6
:102E180011EF17F0010E12EF17F0000E886F896B93
:102E280088518911D8B41BEF17F01DEF17F023EF65
:102E380017F05F0E8215826F836B27EF17F082C041
:102E480082F083C083F012000001CA51CB11D8A4CC
:102E580030EF17F032EF17F038EF17F0CAC09CF0D8
:102E6800CBC09DF03EEF17F0FF0ECA259C6FFF0EFA
:102E7800CB219D6F9BC025F1000E0101266F99C0E3
:102E88008EF09AC08FF0250E0001906F010E916FA1
:102E98009CC092F09DC093F02EEC14F08EC099F077
:102EA8008FC09AF012009F0E096EFF0E0A6E07C0BF
:102EB8000BF008C00CF009500B260A500C220C50DD
:102EC8000AE11A0E0B5CD8A06CEF17F06FEF17F041
:102ED800010E70EF17F0000E0D6E0E6A0D500E10F9
:102EE800D8B479EF17F07BEF17F081EF17F05F0E8A
:102EF8000714076E086A85EF17F007C007F008C0C7
:102F080008F012000001CA51CB11D8A48EEF17F0B7
:102F180090EF17F096EF17F0CAC021F0CBC022F05F
:102F28009CEF17F0FF0ECA25216EFF0ECB21226EF3
:102F380020C025F1000E0101266F1EC013F01FC02E
:102F480014F0250E156E010E166E21C017F022C062
:102F580018F0F8EC14F013C01EF014C01FF01200A3
:102F6800010E0001826F200E7C197D11D8B4BFEFCD
:102F780017F0C1EF17F0DAEF17F0F70E7E6FFF0EBC
:102F88007F6F7CC080F07DC081F07E5180277F51AB
:102F98008123815109E1050E805DD8A0D6EF17F095
:102FA800D8EF17F0DAEF17F0000E826F82C07CF0CE
:102FB8007D6B1200010E076E200E01180210D8B4A6
:102FC800E8EF17F0EAEF17F003EF18F0F70E036ECB
:102FD800FF0E046E01C005F002C006F0035005267E
:102FE80004500622065009E1050E055CD8A0FFEF43
:102FF80017F001EF18F003EF18F0000E076E07C086
:1030080001F0026A12000001DE51D8B40EEF18F088
:1030180010EF18F007EF18F0000EDF25D96EDA6A06
:10302800010EDA22DF50DD6F080EDF25D96EDA6A6D
:10303800010EDA22DF2B070EDF6525EF18F027EFE8
:1030480018F029EF18F0000EDF6FA39ADE07A38AA5
:103058001200000E00018D6F000E8C6F40EF18F00B
:103068008BC07EF07F6B89C080F08AC081F0BDEC98
:1030780015F000018C4B8D2B8C518725D96E8D5105
:103088008821DA6EDF508B6F8B51D8A44EEF18F081
:1030980050EF18F034EF18F01200080EB86E900ECA
:1030A800AB6E240EAC6E820EAF6E060EB06E000EC6
:1030B80000017C6F000E7D6F61EC1BF0000E0001BB
:1030C8007C6F000E7D6F5CEC1BF0000E00017C6FC6
:1030D800000E7D6F66EC1BF0000E0001DC6F120025
:1030E800000E126E000E116E85EF18F010C003F07E
:1030F800046A0EC005F00FC006F009EC16F0114A7C
:10310800122A11500C24D96E12500D20DA6EDF509D
:10311800106E1050D8A493EF18F095EF18F07AEFCE
:1031280018F01200560EF66E360EF76E000EF86E98
:1031380001EEB6F010EE11F00900F5CFEEFFE55004
:10314800E150FAE101EE00F06D0EEE6AE806FDE1ED
:1031580000EEC8F01C0EEE6AE806FDE15F905F9293
:1031680000017AEF00F0080E0001E161BEEF18F0EF
:10317800C0EF18F0D6EF18F0100EE225D96EDA6A13
:10318800010EDA22DF50736EE22B070EE265CFEFF5
:1031980018F0D1EF18F0D3EF18F0000EE26FE12B22
:1031A800D7EF18F0A39812009F0E00017E6FFF0E54
:1031B8007F6F200E7C11806F000E7D11816F7E5114
:1031C80080277F51812381510AE11A0E805DD8A0A2
:1031D800F0EF18F0F3EF18F0010EF4EF18F0000E0E
:1031E8007C6F7D6B12009F0E036EFF0E046E200E27
:1031F8000110056E000E0210066E035005260450DD
:10320800062206500AE11A0E055CD8A00EEF19F046
:1032180011EF19F0010E12EF19F0000E016E026A9B
:1032280012009F0E00017E6FFF0E7F6F7CC080F042
:103238007DC081F07E5180277F51812381510AE131
:103248001A0E805DD8A02BEF19F02EEF19F0010EA1
:103258002FEF19F0000E7C6F7D6B1200BF0E00017E
:103268007E6FFF0E7F6F7CC080F07DC081F07E5145
:1032780080277F51812381510AE11A0E805DD8A0F1
:1032880048EF19F04BEF19F0010E4CEF19F0000E52
:103298007C6F7D6B12007CC07EF07DC07FF058EFA4
:1032A80019F000017C4B7D2B7CC0D9FF7DC0DAFF73
:1032B800DF50D8A462EF19F064EF19F055EF19F058
:1032C80000017E517C5D7C6F7F517D597D6F1200BE
:1032D800D00E00017E6FFF0E7F6F7CC080F07DC036
:1032E80081F07E5180277F51812381510AE10A0EA6
:1032F800805DD8A082EF19F085EF19F0010E86EFF6
:1033080019F0000E7C6F7D6B12009F0E036EFF0E8E
:10331800046E01C005F002C006F0035005260450F3
:10332800062206500AE11A0E055CD8A09EEF19F095
:10333800A1EF19F0010EA2EF19F0000E016E026A5A
:103348001200BF0E036EFF0E046E01C005F002C02E
:1033580006F0035005260450062206500AE11A0E0C
:10336800055CD8A0BAEF19F0BDEF19F0010EBEEF59
:1033780019F0000E016E026A1200D00E036EFF0EE5
:10338800046E01C005F002C006F003500526045083
:10339800062206500AE10A0E055CD8A0D6EF19F0FD
:1033A800D9EF19F0010EDAEF19F0000E016E026A7A
:1033B800120001C003F002C004F0E5EF19F0014A61
:1033C800022A01C0D9FF02C0DAFFDF50D8A4EFEF0C
:1033D80019F0F1EF19F0E3EF19F00350015C016EF9
:1033E80004500258026E12007CC07EF07DC07FF04F
:1033F8000001D8907F337E33D8907F337E337E515F
:10340800676E7CC07EF0030E7E177E3BF00E7E1743
:103418006650CF0B7E11666E1200CDA416EF1AF01F
:1034280018EF1AF021EF1AF0CD9000017D51CF6E00
:103438007CC0CEFFCD8026EF1AF000017D51CF6E03
:103448007CC0CEFF1200000E896E000E8A6E000E40
:103458008B6E9268BF0E936EBD0E946E3C0E0F017C
:103468003A6F3F0E396F2F0E386F000E616EF18E76
:103478001200080E0001E025D96EDA6A010EDA2280
:1034880074CFDFFFE02B070EE0654DEF1AF04FEF2A
:103498001AF051EF1AF0000EE06FDE2B12009EAA10
:1034A80058EF1AF05AEF1AF053EF1AF0000E000115
:1034B800DC6FABA262EF1AF064EF1AF066EF1AF055
:1034C800AB98AB88AE501200880E01018E6F010ECA
:1034D8008F6F000E806F000E816F86C182F187C1E9
:1034E80083F18E0E846F010E856F94EC16F0120036
:1034F80000017C517E03F3CF80F0F4CF81F07C5142
:103508007F03F35081277D517E03F350812780C0CC
:103518007CF081C07DF012006A0E00016C6F000E15
:103528006D6F000E606F000E616F68C062F069C059
:1035380063F06C0E646F000E656FC6EC16F0120037
:1035480001500302F3CF05F0F4CF06F00150040256
:10355800F350062602500302F350062605C001F078
:1035680006C002F0120076EC1BF027EC1AF0E6EC2D
:103578001AF0C8EC1AF034EC1BF0D8EC1AF051EC45
:1035880018F054EC16F012000C0E666E000E646E05
:10359800800E656E010E636E000E686E000E676E1B
:1035A800E70E0F0149171200000ECC6E000ECF6E09
:1035B800000ECE6ECECFD6F0CFCFD7F09E90010EB4
:1035C800CD6E1200700ED36E040ED26E400E9B6E3E
:1035D800D2AEF1EF1AF0F3EF1AF0ECEF1AF0120096
:1035E80000017C6F9EA8FBEF1AF0FDEF1AF0F6EFD2
:1035F8001AF07CC0ADFF12000001DE51D8A407EF1D
:103608001BF00AEF1BF0010E0BEF1BF0000E12006F
:10361800016E9EA812EF1BF014EF1BF00DEF1BF0CC
:1036280001C0ADFF12009EB01CEF1BF01FEF1BF096
:10363800010E20EF1BF0000E12009EBA26EF1BF0C1
:1036480029EF1BF0010E2AEF1BF0000E120055D0D7
:0F36580015340A1A82064103286E756C6C29001E
:10366800670EBB6E000EBC6E9E92050EBA6E1200FF
:1036780000017D6F00017D51F4EC1AF012007CC04E
:10368800D4F07DC0D5F012007CC0D2F07DC0D3F05C
:1036980012007CC020F17DC021F112007CC0D0F066
:1036A8007DC0D1F012007CC01EF17DC01FF1120058
:1036B8007CC01AF17DC01BF112007CC01CF17DC0DA
:1036C8001DF112007CC018F17DC019F11200026EC4
:1036D80002500CEC1BF012007198718812003DEC3E
:0A36E8001AF01200D09E120012002A
:10FC980000496E7374616C6C2061206A756D7065C3
:10FCA800722066726F6D2052433420746F20524266
:10FCB80037206F6E6C7920616674657220756E707E
:10FCC8006C756767696E67205049434B6974340DDA
:10FCD8000A00523A2052656365697665206D65733E
:10FCE80073616765207573696E6720455553415286
:10FCF8005432204953522076696120495220646564
:10FD0800636F6465720D0A002D2D2D2D2D2D2D2D5F
:10FD18002D2D2D2D2D2D2D2D2D2D2D2D2D2D2D2D0B
:10FD28002D2D2D2D2D2D2D2D2D2D2D2D2D2D2D2DFB
:10FD38002D2D2D2D2D2D2D2D2D0D0A00623A2073E0
:10FD48006574207468652042617564207261746509
:10FD5800206F66207468652073656E74206368611F
:10FD6800726163746572730D0A0043686F6F73651F
:10FD78002074686520696E646578206F66207468F1
:10FD880065207461726765742062617564207261B0
:10FD980074650D0A004C61622036202D205265637F
:10FDA8006569766520616E64206465636F646520AB
:10FDB800616E204952207061636B65740D0A0045BD
:10FDC8006E7465722061206D6573736167652C20A0
:10FDD8006869742072657475726E207768656E2024
:10FDE800646F6E652E0D0A004E6F206D657373612A
:10FDF80067652C20726563656976654E65774D6524
:10FE08007373616765203D2066616C73650D0A0038
:10FE1800533A2053656E64206D657373616765207E
:10FE2800696E20666F726567726F756E640D0A0081
:10FE38006D3A20456E74657220696E207472616E29
:10FE4800736D6974204D6573736167650D0A0042AF
:10FE580061756420726174652061737369676E658A
:10FE68006420253032783A253032780D0A007A3A03
:10FE780020436C65617220746865207465726D69D1
:10FE88006E616C0D0A004A7573742072657365742F
:10FE980020455553415254320D0A005A3A205265B2
:10FEA8007365742070726F636573736F720D0A00E7
:10FEB800723A207265736574204555534152543225
:10FEC8000D0A00556E6B6E6F776E206B6579202575
:10FED800630D0A00343A20313932303020626175BE
:10FEE800640D0A0009636865636B53756D3A2025D4
:10FEF800750D0A0044657627323020426F617264BE
:10FF08000D0A00313A203132303020626175640DBB
:10FF18000A00323A203234303020626175640D0AAA
:10FF280000333A203936303020626175640D0A009A
:10FF3800094D6573736167653A2025730D0A003FA3
:10FF48003A2068656C70206D656E750D0A005472F4
:10FF5800616E736D69747465640D0A00303A2033FC
:10FF6800303020626175640D0A0009636865636B4F
:10FF780053756D3A20257500313932303020426191
:10FF880075640D0A00094D6573736167653A20252C
:10FF980073000D0A437265617465640D0A0031329D
:10FFA800303020426175640D0A003234303020420E
:10FFB8006175640D0A003936303020426175640D70
:10FFC8000A0052656365697665640D0A003330304E
:10FFD80020426175640D0A006F3A096F6B0D0A00C3
:10FFE8004F4F50530D0A006F3A206B0D0A000D0A4F
:07FFF8003E2000256300001C
:020000040020DA
:08000000FFFFFFFFFFFFFFFF00
:020000040030CA
:0E000000FF281F3CFFBF85FF0FC00FE00F4021
:00000001FF
